{
  "contractName": "JobLib",
  "abi": [
    {
      "constant": true,
      "inputs": [
        {
          "name": "",
          "type": "uint256"
        }
      ],
      "name": "jobs",
      "outputs": [
        {
          "name": "JobId",
          "type": "uint256"
        },
        {
          "name": "position",
          "type": "string"
        },
        {
          "name": "description",
          "type": "string"
        },
        {
          "name": "company",
          "type": "string"
        },
        {
          "name": "location",
          "type": "string"
        },
        {
          "name": "skillsRequired",
          "type": "string"
        },
        {
          "name": "salary",
          "type": "uint256"
        },
        {
          "name": "applicationsCount",
          "type": "uint256"
        },
        {
          "name": "status",
          "type": "bool"
        }
      ],
      "payable": false,
      "stateMutability": "view",
      "type": "function"
    },
    {
      "constant": false,
      "inputs": [
        {
          "name": "_position",
          "type": "string"
        },
        {
          "name": "_description",
          "type": "string"
        },
        {
          "name": "_company",
          "type": "string"
        },
        {
          "name": "_location",
          "type": "string"
        },
        {
          "name": "_skillsRequired",
          "type": "string"
        },
        {
          "name": "_salary",
          "type": "uint256"
        }
      ],
      "name": "createJob",
      "outputs": [
        {
          "name": "",
          "type": "uint256"
        }
      ],
      "payable": false,
      "stateMutability": "nonpayable",
      "type": "function"
    },
    {
      "constant": false,
      "inputs": [
        {
          "name": "_jobId",
          "type": "uint256"
        },
        {
          "name": "_applicant",
          "type": "address"
        }
      ],
      "name": "addJobApplicant",
      "outputs": [],
      "payable": false,
      "stateMutability": "nonpayable",
      "type": "function"
    },
    {
      "constant": true,
      "inputs": [
        {
          "name": "_jobId",
          "type": "uint256"
        }
      ],
      "name": "getJobApplicants",
      "outputs": [
        {
          "name": "",
          "type": "address[]"
        }
      ],
      "payable": false,
      "stateMutability": "view",
      "type": "function"
    },
    {
      "constant": false,
      "inputs": [
        {
          "name": "_jobId",
          "type": "uint256"
        }
      ],
      "name": "deleteJob",
      "outputs": [],
      "payable": false,
      "stateMutability": "nonpayable",
      "type": "function"
    },
    {
      "constant": true,
      "inputs": [],
      "name": "getJobCount",
      "outputs": [
        {
          "name": "",
          "type": "uint256"
        }
      ],
      "payable": false,
      "stateMutability": "view",
      "type": "function"
    },
    {
      "constant": true,
      "inputs": [
        {
          "name": "_id",
          "type": "uint256"
        }
      ],
      "name": "getJobApplicantsCount",
      "outputs": [
        {
          "name": "",
          "type": "uint256"
        }
      ],
      "payable": false,
      "stateMutability": "view",
      "type": "function"
    }
  ],
  "bytecode": "0x608060405234801561001057600080fd5b506118ab806100206000396000f3fe608060405234801561001057600080fd5b506004361061007d5760003560e01c80636358bb8c1161005b5780636358bb8c146103ca578063842df9b3146103f85780638e7ab7291461043a578063b02b4a2f1461076f5761007d565b806304f801a014610082578063180aedf3146101055780631a5d476d1461037c575b600080fd5b6100ae6004803603602081101561009857600080fd5b810190808035906020019092919050505061078d565b6040518080602001828103825283818151815260200191508051906020019060200280838360005b838110156100f15780820151818401526020810190506100d6565b505050509050019250505060405180910390f35b6101316004803603602081101561011b57600080fd5b810190808035906020019092919050505061082e565b604051808a815260200180602001806020018060200180602001806020018981526020018881526020018715151515815260200186810386528e818151815260200191508051906020019080838360005b8381101561019d578082015181840152602081019050610182565b50505050905090810190601f1680156101ca5780820380516001836020036101000a031916815260200191505b5086810385528d818151815260200191508051906020019080838360005b838110156102035780820151818401526020810190506101e8565b50505050905090810190601f1680156102305780820380516001836020036101000a031916815260200191505b5086810384528c818151815260200191508051906020019080838360005b8381101561026957808201518184015260208101905061024e565b50505050905090810190601f1680156102965780820380516001836020036101000a031916815260200191505b5086810383528b818151815260200191508051906020019080838360005b838110156102cf5780820151818401526020810190506102b4565b50505050905090810190601f1680156102fc5780820380516001836020036101000a031916815260200191505b5086810382528a818151815260200191508051906020019080838360005b8381101561033557808201518184015260208101905061031a565b50505050905090810190601f1680156103625780820380516001836020036101000a031916815260200191505b509e50505050505050505050505050505060405180910390f35b6103c86004803603604081101561039257600080fd5b8101908080359060200190929190803573ffffffffffffffffffffffffffffffffffffffff169060200190929190505050610b81565b005b6103f6600480360360208110156103e057600080fd5b8101908080359060200190929190505050611081565b005b6104246004803603602081101561040e57600080fd5b81019080803590602001909291905050506115d2565b6040518082815260200191505060405180910390f35b610759600480360360c081101561045057600080fd5b810190808035906020019064010000000081111561046d57600080fd5b82018360208201111561047f57600080fd5b803590602001918460018302840111640100000000831117156104a157600080fd5b91908080601f016020809104026020016040519081016040528093929190818152602001838380828437600081840152601f19601f8201169050808301925050505050505091929192908035906020019064010000000081111561050457600080fd5b82018360208201111561051657600080fd5b8035906020019184600183028401116401000000008311171561053857600080fd5b91908080601f016020809104026020016040519081016040528093929190818152602001838380828437600081840152601f19601f8201169050808301925050505050505091929192908035906020019064010000000081111561059b57600080fd5b8201836020820111156105ad57600080fd5b803590602001918460018302840111640100000000831117156105cf57600080fd5b91908080601f016020809104026020016040519081016040528093929190818152602001838380828437600081840152601f19601f8201169050808301925050505050505091929192908035906020019064010000000081111561063257600080fd5b82018360208201111561064457600080fd5b8035906020019184600183028401116401000000008311171561066657600080fd5b91908080601f016020809104026020016040519081016040528093929190818152602001838380828437600081840152601f19601f820116905080830192505050505050509192919290803590602001906401000000008111156106c957600080fd5b8201836020820111156106db57600080fd5b803590602001918460018302840111640100000000831117156106fd57600080fd5b91908080601f016020809104026020016040519081016040528093929190818152602001838380828437600081840152601f19601f820116905080830192505050505050509192919290803590602001909291905050506115f2565b6040518082815260200191505060405180910390f35b610777611761565b6040518082815260200191505060405180910390f35b60606004600083815260200190815260200160002080548060200260200160405190810160405280929190818152602001828054801561082257602002820191906000526020600020905b8160009054906101000a900473ffffffffffffffffffffffffffffffffffffffff1673ffffffffffffffffffffffffffffffffffffffff16815260200190600101908083116107d8575b50505050509050919050565b6003602052806000526040600020600091509050806000015490806001018054600181600116156101000203166002900480601f0160208091040260200160405190810160405280929190818152602001828054600181600116156101000203166002900480156108e05780601f106108b5576101008083540402835291602001916108e0565b820191906000526020600020905b8154815290600101906020018083116108c357829003601f168201915b505050505090806002018054600181600116156101000203166002900480601f01602080910402602001604051908101604052809291908181526020018280546001816001161561010002031660029004801561097e5780601f106109535761010080835404028352916020019161097e565b820191906000526020600020905b81548152906001019060200180831161096157829003601f168201915b505050505090806003018054600181600116156101000203166002900480601f016020809104026020016040519081016040528092919081815260200182805460018160011615610100020316600290048015610a1c5780601f106109f157610100808354040283529160200191610a1c565b820191906000526020600020905b8154815290600101906020018083116109ff57829003601f168201915b505050505090806004018054600181600116156101000203166002900480601f016020809104026020016040519081016040528092919081815260200182805460018160011615610100020316600290048015610aba5780601f10610a8f57610100808354040283529160200191610aba565b820191906000526020600020905b815481529060010190602001808311610a9d57829003601f168201915b505050505090806005018054600181600116156101000203166002900480601f016020809104026020016040519081016040528092919081815260200182805460018160011615610100020316600290048015610b585780601f10610b2d57610100808354040283529160200191610b58565b820191906000526020600020905b815481529060010190602001808311610b3b57829003601f168201915b5050505050908060060154908060070154908060080160009054906101000a900460ff16905089565b610b8961176b565b600360008481526020019081526020016000206040518061012001604052908160008201548152602001600182018054600181600116156101000203166002900480601f016020809104026020016040519081016040528092919081815260200182805460018160011615610100020316600290048015610c4b5780601f10610c2057610100808354040283529160200191610c4b565b820191906000526020600020905b815481529060010190602001808311610c2e57829003601f168201915b50505050508152602001600282018054600181600116156101000203166002900480601f016020809104026020016040519081016040528092919081815260200182805460018160011615610100020316600290048015610ced5780601f10610cc257610100808354040283529160200191610ced565b820191906000526020600020905b815481529060010190602001808311610cd057829003601f168201915b50505050508152602001600382018054600181600116156101000203166002900480601f016020809104026020016040519081016040528092919081815260200182805460018160011615610100020316600290048015610d8f5780601f10610d6457610100808354040283529160200191610d8f565b820191906000526020600020905b815481529060010190602001808311610d7257829003601f168201915b50505050508152602001600482018054600181600116156101000203166002900480601f016020809104026020016040519081016040528092919081815260200182805460018160011615610100020316600290048015610e315780601f10610e0657610100808354040283529160200191610e31565b820191906000526020600020905b815481529060010190602001808311610e1457829003601f168201915b50505050508152602001600582018054600181600116156101000203166002900480601f016020809104026020016040519081016040528092919081815260200182805460018160011615610100020316600290048015610ed35780601f10610ea857610100808354040283529160200191610ed3565b820191906000526020600020905b815481529060010190602001808311610eb657829003601f168201915b5050505050815260200160068201548152602001600782015481526020016008820160009054906101000a900460ff161515151581525050905060018160e00151018160e00181815250508060036000858152602001908152602001600020600082015181600001556020820151816001019080519060200190610f589291906117b9565b506040820151816002019080519060200190610f759291906117b9565b506060820151816003019080519060200190610f929291906117b9565b506080820151816004019080519060200190610faf9291906117b9565b5060a0820151816005019080519060200190610fcc9291906117b9565b5060c0820151816006015560e082015181600701556101008201518160080160006101000a81548160ff021916908315150217905550905050600460008481526020019081526020016000208290806001815401808255809150509060018203906000526020600020016000909192909190916101000a81548173ffffffffffffffffffffffffffffffffffffffff021916908373ffffffffffffffffffffffffffffffffffffffff16021790555050505050565b6003600082815260200190815260200160002060080160009054906101000a900460ff16611117576040517f08c379a00000000000000000000000000000000000000000000000000000000081526004018080602001828103825260168152602001807f4a6f6220697320616c72656164792064656c657465640000000000000000000081525060200191505060405180910390fd5b6004600082815260200190815260200160002060006111369190611839565b61113e61176b565b600360008381526020019081526020016000206040518061012001604052908160008201548152602001600182018054600181600116156101000203166002900480601f0160208091040260200160405190810160405280929190818152602001828054600181600116156101000203166002900480156112005780601f106111d557610100808354040283529160200191611200565b820191906000526020600020905b8154815290600101906020018083116111e357829003601f168201915b50505050508152602001600282018054600181600116156101000203166002900480601f0160208091040260200160405190810160405280929190818152602001828054600181600116156101000203166002900480156112a25780601f10611277576101008083540402835291602001916112a2565b820191906000526020600020905b81548152906001019060200180831161128557829003601f168201915b50505050508152602001600382018054600181600116156101000203166002900480601f0160208091040260200160405190810160405280929190818152602001828054600181600116156101000203166002900480156113445780601f1061131957610100808354040283529160200191611344565b820191906000526020600020905b81548152906001019060200180831161132757829003601f168201915b50505050508152602001600482018054600181600116156101000203166002900480601f0160208091040260200160405190810160405280929190818152602001828054600181600116156101000203166002900480156113e65780601f106113bb576101008083540402835291602001916113e6565b820191906000526020600020905b8154815290600101906020018083116113c957829003601f168201915b50505050508152602001600582018054600181600116156101000203166002900480601f0160208091040260200160405190810160405280929190818152602001828054600181600116156101000203166002900480156114885780601f1061145d57610100808354040283529160200191611488565b820191906000526020600020905b81548152906001019060200180831161146b57829003601f168201915b5050505050815260200160068201548152602001600782015481526020016008820160009054906101000a900460ff1615151515815250509050600081610100019015159081151581525050806003600084815260200190815260200160002060008201518160000155602082015181600101908051906020019061150e9291906117b9565b50604082015181600201908051906020019061152b9291906117b9565b5060608201518160030190805190602001906115489291906117b9565b5060808201518160040190805190602001906115659291906117b9565b5060a08201518160050190805190602001906115829291906117b9565b5060c0820151816006015560e082015181600701556101008201518160080160006101000a81548160ff021916908315150217905550905050600260008154809291906001900391905055505050565b600060036000838152602001908152602001600020600701549050919050565b600060016000815480929190600101919050555061160e61176b565b604051806101200160405280600154815260200189815260200188815260200187815260200186815260200185815260200184815260200160008152602001600115158152509050806003600060015481526020019081526020016000206000820151816000015560208201518160010190805190602001906116929291906117b9565b5060408201518160020190805190602001906116af9291906117b9565b5060608201518160030190805190602001906116cc9291906117b9565b5060808201518160040190805190602001906116e99291906117b9565b5060a08201518160050190805190602001906117069291906117b9565b5060c0820151816006015560e082015181600701556101008201518160080160006101000a81548160ff0219169083151502179055509050506002600081548092919060010191905055506001549150509695505050505050565b6000600154905090565b60405180610120016040528060008152602001606081526020016060815260200160608152602001606081526020016060815260200160008152602001600081526020016000151581525090565b828054600181600116156101000203166002900490600052602060002090601f016020900481019282601f106117fa57805160ff1916838001178555611828565b82800160010185558215611828579182015b8281111561182757825182559160200191906001019061180c565b5b509050611835919061185a565b5090565b5080546000825590600052602060002090810190611857919061185a565b50565b61187c91905b80821115611878576000816000905550600101611860565b5090565b9056fea165627a7a72305820fd232d262e27ebe439f074cf41d8b3cb7fc59f7cabde46af5b1260330a4774920029",
  "source": "pragma solidity ^0.5.0;\n\n\ncontract JobLib{\n    \n    address owner;\n    //add location\n    // add skills\n    // add date posted\n    //add posted by\n    struct Job {\n        uint JobId;\n        string position;\n        string description;\n        string company;\n        string location;\n        string skillsRequired;\n        uint salary;\n        uint applicationsCount;\n        bool status;\n        \n        \n    }\n    uint  jobCount;\n    uint  activeJobsCount;\n    \n    // jobId => job\n    mapping(uint => Job) public jobs;\n    //jobId => appicants\n    mapping(uint => address[])  jobApplicants;\n    \n   \n    \n    \n     function createJob(string memory _position, string memory _description, string memory _company,string memory _location, string memory _skillsRequired, uint _salary) public returns(uint)  {\n        jobCount++;\n        Job memory job = Job(jobCount,_position,_description,_company,_location, _skillsRequired, _salary,0,true);\n        jobs[jobCount]=job;\n        activeJobsCount++;\n        \n        \n        //Job[] memory jobs = recruiterPostedJobs[msg.sender];\n        //jobs.push(job);\n       // recruiterPostedJobs[msg.sender]=jobs;\n       // recuiterPostedJobsCount++;\n       \n       return jobCount;\n        \n    }\n    \n    function addJobApplicant(uint _jobId, address _applicant) public {\n        Job memory job = jobs[_jobId];\n        job.applicationsCount = job.applicationsCount+1;\n        jobs[_jobId]=job;\n        jobApplicants[_jobId].push(_applicant);\n    }\n    \n    function getJobApplicants(uint _jobId) public view returns(address[] memory){\n        return jobApplicants[_jobId];\n    }\n    function deleteJob(uint _jobId) public {\n        require(jobs[_jobId].status,\"Job is already deleted\");\n        delete jobApplicants[_jobId];\n         Job memory job = jobs[_jobId];\n         job.status=false;\n         jobs[_jobId]=job;\n         activeJobsCount--;\n         \n    } \n    \n   // function getJobDetails(uint _id) public view returns(Job memory){\n     //   return jobs[_id];\n   // }\n    \n    function getJobCount() public view returns(uint){\n        return jobCount;\n    }\n    \n    function getJobApplicantsCount(uint _id) public view returns(uint){\n        //require(jobs[_jobId].status,\"This job is deleted\")\n        return jobs[_id].applicationsCount;\n    }\n \n}",
  "sourcePath": "/home/kbhargav5/Documents/Ethereum_project/DeHire/src/contracts/JobLib.sol",
  "compiler": {
    "name": "solc",
    "version": "0.5.8+commit.23d335f2.Emscripten.clang"
  },
  "schemaVersion": "3.0.16",
  "updatedAt": "2019-12-05T03:42:01.020Z",
  "devdoc": {
    "methods": {}
  },
  "userdoc": {
    "methods": {}
  }
}