{
  "contractName": "JobPortal",
  "abi": [
    {
      "constant": true,
      "inputs": [
        {
          "name": "",
          "type": "address"
        }
      ],
      "name": "registeredEmployees",
      "outputs": [
        {
          "name": "name",
          "type": "string"
        },
        {
          "name": "email",
          "type": "string"
        },
        {
          "name": "employeeAddress",
          "type": "address"
        },
        {
          "name": "skillset",
          "type": "string"
        },
        {
          "name": "workExperienceCount",
          "type": "uint256"
        },
        {
          "name": "academicCount",
          "type": "uint256"
        },
        {
          "name": "jobsAppliedCount",
          "type": "uint256"
        }
      ],
      "payable": false,
      "stateMutability": "view",
      "type": "function"
    },
    {
      "constant": true,
      "inputs": [
        {
          "name": "",
          "type": "address"
        },
        {
          "name": "",
          "type": "uint256"
        }
      ],
      "name": "workExperienceDetails",
      "outputs": [
        {
          "name": "companyName",
          "type": "string"
        },
        {
          "name": "role",
          "type": "string"
        },
        {
          "name": "salary",
          "type": "uint256"
        },
        {
          "name": "fromDate",
          "type": "string"
        },
        {
          "name": "ToDate",
          "type": "string"
        },
        {
          "name": "duration",
          "type": "string"
        },
        {
          "name": "isCurrentEmployer",
          "type": "bool"
        }
      ],
      "payable": false,
      "stateMutability": "view",
      "type": "function"
    },
    {
      "constant": true,
      "inputs": [
        {
          "name": "",
          "type": "address"
        },
        {
          "name": "",
          "type": "uint256"
        }
      ],
      "name": "academicDetails",
      "outputs": [
        {
          "name": "institutionName",
          "type": "string"
        },
        {
          "name": "course",
          "type": "string"
        },
        {
          "name": "fromDate",
          "type": "string"
        },
        {
          "name": "toDate",
          "type": "string"
        },
        {
          "name": "duration",
          "type": "string"
        }
      ],
      "payable": false,
      "stateMutability": "view",
      "type": "function"
    },
    {
      "constant": true,
      "inputs": [
        {
          "name": "",
          "type": "address"
        }
      ],
      "name": "registeredRecruiters",
      "outputs": [
        {
          "name": "name",
          "type": "string"
        },
        {
          "name": "companyName",
          "type": "string"
        },
        {
          "name": "recruiterAddress",
          "type": "address"
        },
        {
          "name": "email",
          "type": "string"
        },
        {
          "name": "jobCount",
          "type": "uint256"
        }
      ],
      "payable": false,
      "stateMutability": "view",
      "type": "function"
    },
    {
      "constant": true,
      "inputs": [
        {
          "name": "",
          "type": "address"
        },
        {
          "name": "",
          "type": "uint256"
        }
      ],
      "name": "recruiterPostedJobs",
      "outputs": [
        {
          "name": "",
          "type": "uint256"
        }
      ],
      "payable": false,
      "stateMutability": "view",
      "type": "function"
    },
    {
      "constant": true,
      "inputs": [
        {
          "name": "",
          "type": "address"
        }
      ],
      "name": "isRecruiter",
      "outputs": [
        {
          "name": "",
          "type": "bool"
        }
      ],
      "payable": false,
      "stateMutability": "view",
      "type": "function"
    },
    {
      "constant": true,
      "inputs": [
        {
          "name": "",
          "type": "address"
        },
        {
          "name": "",
          "type": "uint256"
        }
      ],
      "name": "employeeAppliedJobs",
      "outputs": [
        {
          "name": "",
          "type": "uint256"
        }
      ],
      "payable": false,
      "stateMutability": "view",
      "type": "function"
    },
    {
      "constant": true,
      "inputs": [
        {
          "name": "",
          "type": "address"
        }
      ],
      "name": "isEmployee",
      "outputs": [
        {
          "name": "",
          "type": "bool"
        }
      ],
      "payable": false,
      "stateMutability": "view",
      "type": "function"
    },
    {
      "inputs": [
        {
          "name": "_jobLib",
          "type": "address"
        }
      ],
      "payable": false,
      "stateMutability": "nonpayable",
      "type": "constructor"
    },
    {
      "anonymous": false,
      "inputs": [
        {
          "indexed": false,
          "name": "_name",
          "type": "string"
        },
        {
          "indexed": false,
          "name": "_email",
          "type": "string"
        },
        {
          "indexed": false,
          "name": "_employeeAddress",
          "type": "address"
        }
      ],
      "name": "EmployeeRegistered",
      "type": "event"
    },
    {
      "anonymous": false,
      "inputs": [
        {
          "indexed": false,
          "name": "_name",
          "type": "string"
        },
        {
          "indexed": false,
          "name": "_email",
          "type": "string"
        },
        {
          "indexed": false,
          "name": "_employeeAddress",
          "type": "address"
        }
      ],
      "name": "UpdatedBasicProfile",
      "type": "event"
    },
    {
      "anonymous": false,
      "inputs": [
        {
          "indexed": false,
          "name": "_institutionName",
          "type": "string"
        },
        {
          "indexed": false,
          "name": "_course",
          "type": "string"
        },
        {
          "indexed": false,
          "name": "_fromDate",
          "type": "string"
        },
        {
          "indexed": false,
          "name": "_toDate",
          "type": "string"
        },
        {
          "indexed": false,
          "name": "_duration",
          "type": "string"
        }
      ],
      "name": "AcademicsAdded",
      "type": "event"
    },
    {
      "anonymous": false,
      "inputs": [
        {
          "indexed": false,
          "name": "_id",
          "type": "uint256"
        },
        {
          "indexed": false,
          "name": "_institutionName",
          "type": "string"
        },
        {
          "indexed": false,
          "name": "_course",
          "type": "string"
        },
        {
          "indexed": false,
          "name": "_fromDate",
          "type": "string"
        },
        {
          "indexed": false,
          "name": "_toDate",
          "type": "string"
        },
        {
          "indexed": false,
          "name": "_duration",
          "type": "string"
        }
      ],
      "name": "AcademicsUpdated",
      "type": "event"
    },
    {
      "anonymous": false,
      "inputs": [
        {
          "indexed": false,
          "name": "_companyName",
          "type": "string"
        },
        {
          "indexed": false,
          "name": "_role",
          "type": "string"
        },
        {
          "indexed": false,
          "name": "_salary",
          "type": "uint256"
        },
        {
          "indexed": false,
          "name": "_fromDate",
          "type": "string"
        },
        {
          "indexed": false,
          "name": "_toDate",
          "type": "string"
        },
        {
          "indexed": false,
          "name": "_duration",
          "type": "string"
        },
        {
          "indexed": false,
          "name": "_isCurrentEmployer",
          "type": "bool"
        }
      ],
      "name": "ExperienceAdded",
      "type": "event"
    },
    {
      "anonymous": false,
      "inputs": [
        {
          "indexed": false,
          "name": "_id",
          "type": "uint256"
        },
        {
          "indexed": false,
          "name": "_companyName",
          "type": "string"
        },
        {
          "indexed": false,
          "name": "_role",
          "type": "string"
        },
        {
          "indexed": false,
          "name": "_salary",
          "type": "uint256"
        },
        {
          "indexed": false,
          "name": "_fromDate",
          "type": "string"
        },
        {
          "indexed": false,
          "name": "_toDate",
          "type": "string"
        },
        {
          "indexed": false,
          "name": "_duration",
          "type": "string"
        },
        {
          "indexed": false,
          "name": "_isCurrentEmployer",
          "type": "bool"
        }
      ],
      "name": "ExperienceUpdated",
      "type": "event"
    },
    {
      "anonymous": false,
      "inputs": [
        {
          "indexed": false,
          "name": "_jobId",
          "type": "uint256"
        },
        {
          "indexed": false,
          "name": "_employee",
          "type": "address"
        }
      ],
      "name": "JobApplied",
      "type": "event"
    },
    {
      "anonymous": false,
      "inputs": [
        {
          "indexed": false,
          "name": "_name",
          "type": "string"
        },
        {
          "indexed": false,
          "name": "_companyName",
          "type": "string"
        },
        {
          "indexed": false,
          "name": "_recruiterAddress",
          "type": "address"
        },
        {
          "indexed": false,
          "name": "_email",
          "type": "string"
        }
      ],
      "name": "RecruiterRegistered",
      "type": "event"
    },
    {
      "anonymous": false,
      "inputs": [
        {
          "indexed": false,
          "name": "_recruiterAddress",
          "type": "address"
        },
        {
          "indexed": false,
          "name": "_position",
          "type": "string"
        },
        {
          "indexed": false,
          "name": "_description",
          "type": "string"
        },
        {
          "indexed": false,
          "name": "_company",
          "type": "string"
        },
        {
          "indexed": false,
          "name": "_skillsRequired",
          "type": "string"
        },
        {
          "indexed": false,
          "name": "_salary",
          "type": "uint256"
        }
      ],
      "name": "JobPosted",
      "type": "event"
    },
    {
      "anonymous": false,
      "inputs": [
        {
          "indexed": false,
          "name": "_jobId",
          "type": "uint256"
        },
        {
          "indexed": false,
          "name": "_recruiter",
          "type": "address"
        }
      ],
      "name": "JobDeleted",
      "type": "event"
    },
    {
      "constant": false,
      "inputs": [
        {
          "name": "_name",
          "type": "string"
        },
        {
          "name": "_email",
          "type": "string"
        }
      ],
      "name": "registerEmployee",
      "outputs": [],
      "payable": false,
      "stateMutability": "nonpayable",
      "type": "function"
    },
    {
      "constant": false,
      "inputs": [
        {
          "name": "_name",
          "type": "string"
        },
        {
          "name": "_email",
          "type": "string"
        }
      ],
      "name": "updatebasicProfile",
      "outputs": [],
      "payable": false,
      "stateMutability": "nonpayable",
      "type": "function"
    },
    {
      "constant": false,
      "inputs": [
        {
          "name": "_institutionName",
          "type": "string"
        },
        {
          "name": "_course",
          "type": "string"
        },
        {
          "name": "_fromDate",
          "type": "string"
        },
        {
          "name": "_toDate",
          "type": "string"
        },
        {
          "name": "_duration",
          "type": "string"
        }
      ],
      "name": "AddAcademics",
      "outputs": [],
      "payable": false,
      "stateMutability": "nonpayable",
      "type": "function"
    },
    {
      "constant": false,
      "inputs": [
        {
          "name": "_id",
          "type": "uint256"
        },
        {
          "name": "_institutionName",
          "type": "string"
        },
        {
          "name": "_course",
          "type": "string"
        },
        {
          "name": "_fromDate",
          "type": "string"
        },
        {
          "name": "_toDate",
          "type": "string"
        },
        {
          "name": "_duration",
          "type": "string"
        }
      ],
      "name": "UpdateAcademics",
      "outputs": [],
      "payable": false,
      "stateMutability": "nonpayable",
      "type": "function"
    },
    {
      "constant": false,
      "inputs": [
        {
          "name": "_companyName",
          "type": "string"
        },
        {
          "name": "_role",
          "type": "string"
        },
        {
          "name": "_salary",
          "type": "uint256"
        },
        {
          "name": "_fromDate",
          "type": "string"
        },
        {
          "name": "_toDate",
          "type": "string"
        },
        {
          "name": "_duration",
          "type": "string"
        },
        {
          "name": "_isCurrentEmployer",
          "type": "bool"
        }
      ],
      "name": "AddExperience",
      "outputs": [],
      "payable": false,
      "stateMutability": "nonpayable",
      "type": "function"
    },
    {
      "constant": false,
      "inputs": [
        {
          "name": "_id",
          "type": "uint256"
        },
        {
          "name": "_companyName",
          "type": "string"
        },
        {
          "name": "_role",
          "type": "string"
        },
        {
          "name": "_salary",
          "type": "uint256"
        },
        {
          "name": "_fromDate",
          "type": "string"
        },
        {
          "name": "_toDate",
          "type": "string"
        },
        {
          "name": "_durartion",
          "type": "string"
        },
        {
          "name": "_isCurrentEmployer",
          "type": "bool"
        }
      ],
      "name": "UpdateExperience",
      "outputs": [],
      "payable": false,
      "stateMutability": "nonpayable",
      "type": "function"
    },
    {
      "constant": false,
      "inputs": [
        {
          "name": "_name",
          "type": "string"
        },
        {
          "name": "_companyName",
          "type": "string"
        },
        {
          "name": "_email",
          "type": "string"
        }
      ],
      "name": "registerRecruiter",
      "outputs": [],
      "payable": true,
      "stateMutability": "payable",
      "type": "function"
    },
    {
      "constant": false,
      "inputs": [
        {
          "name": "_position",
          "type": "string"
        },
        {
          "name": "_description",
          "type": "string"
        },
        {
          "name": "_company",
          "type": "string"
        },
        {
          "name": "_location",
          "type": "string"
        },
        {
          "name": "_skillsRequired",
          "type": "string"
        },
        {
          "name": "_salary",
          "type": "uint256"
        }
      ],
      "name": "PostJob",
      "outputs": [],
      "payable": false,
      "stateMutability": "nonpayable",
      "type": "function"
    },
    {
      "constant": false,
      "inputs": [
        {
          "name": "_id",
          "type": "uint256"
        }
      ],
      "name": "ApplyJob",
      "outputs": [],
      "payable": false,
      "stateMutability": "nonpayable",
      "type": "function"
    },
    {
      "constant": true,
      "inputs": [
        {
          "name": "_id",
          "type": "uint256"
        }
      ],
      "name": "getJobApplicants",
      "outputs": [
        {
          "name": "",
          "type": "address[]"
        }
      ],
      "payable": false,
      "stateMutability": "view",
      "type": "function"
    },
    {
      "constant": true,
      "inputs": [],
      "name": "getRecruiterPostedJobs",
      "outputs": [
        {
          "name": "",
          "type": "uint256[]"
        }
      ],
      "payable": false,
      "stateMutability": "view",
      "type": "function"
    },
    {
      "constant": true,
      "inputs": [],
      "name": "getEmployeeAppliedJobs",
      "outputs": [
        {
          "name": "",
          "type": "uint256[]"
        }
      ],
      "payable": false,
      "stateMutability": "view",
      "type": "function"
    },
    {
      "constant": false,
      "inputs": [
        {
          "name": "_id",
          "type": "uint256"
        }
      ],
      "name": "deleteJob",
      "outputs": [],
      "payable": false,
      "stateMutability": "nonpayable",
      "type": "function"
    }
  ],
  "bytecode": "0x60806040523480156200001157600080fd5b5060405160208062006031833981018060405260208110156200003357600080fd5b8101908080519060200190929190505050336000806101000a81548173ffffffffffffffffffffffffffffffffffffffff021916908373ffffffffffffffffffffffffffffffffffffffff16021790555080600160006101000a81548173ffffffffffffffffffffffffffffffffffffffff021916908373ffffffffffffffffffffffffffffffffffffffff16021790555050615f5b80620000d66000396000f3fe60806040526004361061012a5760003560e01c8063697511fe116100ab578063bb688d061161006f578063bb688d0614611a2b578063e1954f7214611d59578063e662732614611dc5578063ea66543f14611e34578063efde09e314611e9d578063f27e8bd914611f095761012a565b8063697511fe146111b557806375e764c4146114fa578063873dfb2c14611828578063a477b02414611891578063af656df4146119f05761012a565b80633431be12116100f25780633431be1214610a225780633b5fe98114610c0b57806347981f9514610de75780634921ac211461110b5780636358bb8c1461117a5761012a565b806304f801a01461012f5780630989086d146101bf578063155a06a4146103a957806323d669c11461063f5780632ebb625c146108c3575b600080fd5b34801561013b57600080fd5b506101686004803603602081101561015257600080fd5b8101908080359060200190929190505050612243565b6040518080602001828103825283818151815260200191508051906020019060200280838360005b838110156101ab578082015181840152602081019050610190565b505050509050019250505060405180910390f35b3480156101cb57600080fd5b5061020e600480360360208110156101e257600080fd5b81019080803573ffffffffffffffffffffffffffffffffffffffff16906020019092919050505061240f565b6040518080602001806020018873ffffffffffffffffffffffffffffffffffffffff1673ffffffffffffffffffffffffffffffffffffffff1681526020018060200187815260200186815260200185815260200184810384528b818151815260200191508051906020019080838360005b8381101561029a57808201518184015260208101905061027f565b50505050905090810190601f1680156102c75780820380516001836020036101000a031916815260200191505b5084810383528a818151815260200191508051906020019080838360005b838110156103005780820151818401526020810190506102e5565b50505050905090810190601f16801561032d5780820380516001836020036101000a031916815260200191505b50848103825288818151815260200191508051906020019080838360005b8381101561036657808201518184015260208101905061034b565b50505050905090810190601f1680156103935780820380516001836020036101000a031916815260200191505b509a505050505050505050505060405180910390f35b3480156103b557600080fd5b50610402600480360360408110156103cc57600080fd5b81019080803573ffffffffffffffffffffffffffffffffffffffff16906020019092919080359060200190929190505050612639565b6040518080602001806020018881526020018060200180602001806020018715151515815260200186810386528d818151815260200191508051906020019080838360005b83811015610462578082015181840152602081019050610447565b50505050905090810190601f16801561048f5780820380516001836020036101000a031916815260200191505b5086810385528c818151815260200191508051906020019080838360005b838110156104c85780820151818401526020810190506104ad565b50505050905090810190601f1680156104f55780820380516001836020036101000a031916815260200191505b5086810384528a818151815260200191508051906020019080838360005b8381101561052e578082015181840152602081019050610513565b50505050905090810190601f16801561055b5780820380516001836020036101000a031916815260200191505b50868103835289818151815260200191508051906020019080838360005b83811015610594578082015181840152602081019050610579565b50505050905090810190601f1680156105c15780820380516001836020036101000a031916815260200191505b50868103825288818151815260200191508051906020019080838360005b838110156105fa5780820151818401526020810190506105df565b50505050905090810190601f1680156106275780820380516001836020036101000a031916815260200191505b509c5050505050505050505050505060405180910390f35b34801561064b57600080fd5b506106986004803603604081101561066257600080fd5b81019080803573ffffffffffffffffffffffffffffffffffffffff1690602001909291908035906020019092919050505061298d565b60405180806020018060200180602001806020018060200186810386528b818151815260200191508051906020019080838360005b838110156106e85780820151818401526020810190506106cd565b50505050905090810190601f1680156107155780820380516001836020036101000a031916815260200191505b5086810385528a818151815260200191508051906020019080838360005b8381101561074e578082015181840152602081019050610733565b50505050905090810190601f16801561077b5780820380516001836020036101000a031916815260200191505b50868103845289818151815260200191508051906020019080838360005b838110156107b4578082015181840152602081019050610799565b50505050905090810190601f1680156107e15780820380516001836020036101000a031916815260200191505b50868103835288818151815260200191508051906020019080838360005b8381101561081a5780820151818401526020810190506107ff565b50505050905090810190601f1680156108475780820380516001836020036101000a031916815260200191505b50868103825287818151815260200191508051906020019080838360005b83811015610880578082015181840152602081019050610865565b50505050905090810190601f1680156108ad5780820380516001836020036101000a031916815260200191505b509a505050505050505050505060405180910390f35b3480156108cf57600080fd5b50610a20600480360360408110156108e657600080fd5b810190808035906020019064010000000081111561090357600080fd5b82018360208201111561091557600080fd5b8035906020019184600183028401116401000000008311171561093757600080fd5b91908080601f016020809104026020016040519081016040528093929190818152602001838380828437600081840152601f19601f8201169050808301925050505050505091929192908035906020019064010000000081111561099a57600080fd5b8201836020820111156109ac57600080fd5b803590602001918460018302840111640100000000831117156109ce57600080fd5b91908080601f016020809104026020016040519081016040528093929190818152602001838380828437600081840152601f19601f820116905080830192505050505050509192919290505050612cc8565b005b610c0960048036036060811015610a3857600080fd5b8101908080359060200190640100000000811115610a5557600080fd5b820183602082011115610a6757600080fd5b80359060200191846001830284011164010000000083111715610a8957600080fd5b91908080601f016020809104026020016040519081016040528093929190818152602001838380828437600081840152601f19601f82011690508083019250505050505050919291929080359060200190640100000000811115610aec57600080fd5b820183602082011115610afe57600080fd5b80359060200191846001830284011164010000000083111715610b2057600080fd5b91908080601f016020809104026020016040519081016040528093929190818152602001838380828437600081840152601f19601f82011690508083019250505050505050919291929080359060200190640100000000811115610b8357600080fd5b820183602082011115610b9557600080fd5b80359060200191846001830284011164010000000083111715610bb757600080fd5b91908080601f016020809104026020016040519081016040528093929190818152602001838380828437600081840152601f19601f8201169050808301925050505050505091929192905050506131c9565b005b348015610c1757600080fd5b50610c5a60048036036020811015610c2e57600080fd5b81019080803573ffffffffffffffffffffffffffffffffffffffff16906020019092919050505061359b565b6040518080602001806020018673ffffffffffffffffffffffffffffffffffffffff1673ffffffffffffffffffffffffffffffffffffffff16815260200180602001858152602001848103845289818151815260200191508051906020019080838360005b83811015610cda578082015181840152602081019050610cbf565b50505050905090810190601f168015610d075780820380516001836020036101000a031916815260200191505b50848103835288818151815260200191508051906020019080838360005b83811015610d40578082015181840152602081019050610d25565b50505050905090810190601f168015610d6d5780820380516001836020036101000a031916815260200191505b50848103825286818151815260200191508051906020019080838360005b83811015610da6578082015181840152602081019050610d8b565b50505050905090810190601f168015610dd35780820380516001836020036101000a031916815260200191505b509850505050505050505060405180910390f35b348015610df357600080fd5b50611109600480360360a0811015610e0a57600080fd5b8101908080359060200190640100000000811115610e2757600080fd5b820183602082011115610e3957600080fd5b80359060200191846001830284011164010000000083111715610e5b57600080fd5b91908080601f016020809104026020016040519081016040528093929190818152602001838380828437600081840152601f19601f82011690508083019250505050505050919291929080359060200190640100000000811115610ebe57600080fd5b820183602082011115610ed057600080fd5b80359060200191846001830284011164010000000083111715610ef257600080fd5b91908080601f016020809104026020016040519081016040528093929190818152602001838380828437600081840152601f19601f82011690508083019250505050505050919291929080359060200190640100000000811115610f5557600080fd5b820183602082011115610f6757600080fd5b80359060200191846001830284011164010000000083111715610f8957600080fd5b91908080601f016020809104026020016040519081016040528093929190818152602001838380828437600081840152601f19601f82011690508083019250505050505050919291929080359060200190640100000000811115610fec57600080fd5b820183602082011115610ffe57600080fd5b8035906020019184600183028401116401000000008311171561102057600080fd5b91908080601f016020809104026020016040519081016040528093929190818152602001838380828437600081840152601f19601f8201169050808301925050505050505091929192908035906020019064010000000081111561108357600080fd5b82018360208201111561109557600080fd5b803590602001918460018302840111640100000000831117156110b757600080fd5b91908080601f016020809104026020016040519081016040528093929190818152602001838380828437600081840152601f19601f8201169050808301925050505050505091929192905050506137b9565b005b34801561111757600080fd5b506111646004803603604081101561112e57600080fd5b81019080803573ffffffffffffffffffffffffffffffffffffffff16906020019092919080359060200190929190505050613c7a565b6040518082815260200191505060405180910390f35b34801561118657600080fd5b506111b36004803603602081101561119d57600080fd5b8101908080359060200190929190505050613ca8565b005b3480156111c157600080fd5b506114f860048036036101008110156111d957600080fd5b81019080803590602001909291908035906020019064010000000081111561120057600080fd5b82018360208201111561121257600080fd5b8035906020019184600183028401116401000000008311171561123457600080fd5b91908080601f016020809104026020016040519081016040528093929190818152602001838380828437600081840152601f19601f8201169050808301925050505050505091929192908035906020019064010000000081111561129757600080fd5b8201836020820111156112a957600080fd5b803590602001918460018302840111640100000000831117156112cb57600080fd5b91908080601f016020809104026020016040519081016040528093929190818152602001838380828437600081840152601f19601f820116905080830192505050505050509192919290803590602001909291908035906020019064010000000081111561133857600080fd5b82018360208201111561134a57600080fd5b8035906020019184600183028401116401000000008311171561136c57600080fd5b91908080601f016020809104026020016040519081016040528093929190818152602001838380828437600081840152601f19601f820116905080830192505050505050509192919290803590602001906401000000008111156113cf57600080fd5b8201836020820111156113e157600080fd5b8035906020019184600183028401116401000000008311171561140357600080fd5b91908080601f016020809104026020016040519081016040528093929190818152602001838380828437600081840152601f19601f8201169050808301925050505050505091929192908035906020019064010000000081111561146657600080fd5b82018360208201111561147857600080fd5b8035906020019184600183028401116401000000008311171561149a57600080fd5b91908080601f016020809104026020016040519081016040528093929190818152602001838380828437600081840152601f19601f820116905080830192505050505050509192919290803515159060200190929190505050613e62565b005b34801561150657600080fd5b50611826600480360360c081101561151d57600080fd5b81019080803590602001909291908035906020019064010000000081111561154457600080fd5b82018360208201111561155657600080fd5b8035906020019184600183028401116401000000008311171561157857600080fd5b91908080601f016020809104026020016040519081016040528093929190818152602001838380828437600081840152601f19601f820116905080830192505050505050509192919290803590602001906401000000008111156115db57600080fd5b8201836020820111156115ed57600080fd5b8035906020019184600183028401116401000000008311171561160f57600080fd5b91908080601f016020809104026020016040519081016040528093929190818152602001838380828437600081840152601f19601f8201169050808301925050505050505091929192908035906020019064010000000081111561167257600080fd5b82018360208201111561168457600080fd5b803590602001918460018302840111640100000000831117156116a657600080fd5b91908080601f016020809104026020016040519081016040528093929190818152602001838380828437600081840152601f19601f8201169050808301925050505050505091929192908035906020019064010000000081111561170957600080fd5b82018360208201111561171b57600080fd5b8035906020019184600183028401116401000000008311171561173d57600080fd5b91908080601f016020809104026020016040519081016040528093929190818152602001838380828437600081840152601f19601f820116905080830192505050505050509192919290803590602001906401000000008111156117a057600080fd5b8201836020820111156117b257600080fd5b803590602001918460018302840111640100000000831117156117d457600080fd5b91908080601f016020809104026020016040519081016040528093929190818152602001838380828437600081840152601f19601f8201169050808301925050505050505091929192905050506142e6565b005b34801561183457600080fd5b506118776004803603602081101561184b57600080fd5b81019080803573ffffffffffffffffffffffffffffffffffffffff16906020019092919050505061471c565b604051808215151515815260200191505060405180910390f35b34801561189d57600080fd5b506119ee600480360360408110156118b457600080fd5b81019080803590602001906401000000008111156118d157600080fd5b8201836020820111156118e357600080fd5b8035906020019184600183028401116401000000008311171561190557600080fd5b91908080601f016020809104026020016040519081016040528093929190818152602001838380828437600081840152601f19601f8201169050808301925050505050505091929192908035906020019064010000000081111561196857600080fd5b82018360208201111561197a57600080fd5b8035906020019184600183028401116401000000008311171561199c57600080fd5b91908080601f016020809104026020016040519081016040528093929190818152602001838380828437600081840152601f19601f82011690508083019250505050505050919291929050505061473c565b005b3480156119fc57600080fd5b50611a2960048036036020811015611a1357600080fd5b8101908080359060200190929190505050614ad1565b005b348015611a3757600080fd5b50611d57600480360360c0811015611a4e57600080fd5b8101908080359060200190640100000000811115611a6b57600080fd5b820183602082011115611a7d57600080fd5b80359060200191846001830284011164010000000083111715611a9f57600080fd5b91908080601f016020809104026020016040519081016040528093929190818152602001838380828437600081840152601f19601f82011690508083019250505050505050919291929080359060200190640100000000811115611b0257600080fd5b820183602082011115611b1457600080fd5b80359060200191846001830284011164010000000083111715611b3657600080fd5b91908080601f016020809104026020016040519081016040528093929190818152602001838380828437600081840152601f19601f82011690508083019250505050505050919291929080359060200190640100000000811115611b9957600080fd5b820183602082011115611bab57600080fd5b80359060200191846001830284011164010000000083111715611bcd57600080fd5b91908080601f016020809104026020016040519081016040528093929190818152602001838380828437600081840152601f19601f82011690508083019250505050505050919291929080359060200190640100000000811115611c3057600080fd5b820183602082011115611c4257600080fd5b80359060200191846001830284011164010000000083111715611c6457600080fd5b91908080601f016020809104026020016040519081016040528093929190818152602001838380828437600081840152601f19601f82011690508083019250505050505050919291929080359060200190640100000000811115611cc757600080fd5b820183602082011115611cd957600080fd5b80359060200191846001830284011164010000000083111715611cfb57600080fd5b91908080601f016020809104026020016040519081016040528093929190818152602001838380828437600081840152601f19601f82011690508083019250505050505050919291929080359060200190929190505050614ed9565b005b348015611d6557600080fd5b50611d6e6156af565b6040518080602001828103825283818151815260200191508051906020019060200280838360005b83811015611db1578082015181840152602081019050611d96565b505050509050019250505060405180910390f35b348015611dd157600080fd5b50611e1e60048036036040811015611de857600080fd5b81019080803573ffffffffffffffffffffffffffffffffffffffff16906020019092919080359060200190929190505050615744565b6040518082815260200191505060405180910390f35b348015611e4057600080fd5b50611e8360048036036020811015611e5757600080fd5b81019080803573ffffffffffffffffffffffffffffffffffffffff169060200190929190505050615772565b604051808215151515815260200191505060405180910390f35b348015611ea957600080fd5b50611eb2615792565b6040518080602001828103825283818151815260200191508051906020019060200280838360005b83811015611ef5578082015181840152602081019050611eda565b505050509050019250505060405180910390f35b348015611f1557600080fd5b50612241600480360360e0811015611f2c57600080fd5b8101908080359060200190640100000000811115611f4957600080fd5b820183602082011115611f5b57600080fd5b80359060200191846001830284011164010000000083111715611f7d57600080fd5b91908080601f016020809104026020016040519081016040528093929190818152602001838380828437600081840152601f19601f82011690508083019250505050505050919291929080359060200190640100000000811115611fe057600080fd5b820183602082011115611ff257600080fd5b8035906020019184600183028401116401000000008311171561201457600080fd5b91908080601f016020809104026020016040519081016040528093929190818152602001838380828437600081840152601f19601f820116905080830192505050505050509192919290803590602001909291908035906020019064010000000081111561208157600080fd5b82018360208201111561209357600080fd5b803590602001918460018302840111640100000000831117156120b557600080fd5b91908080601f016020809104026020016040519081016040528093929190818152602001838380828437600081840152601f19601f8201169050808301925050505050505091929192908035906020019064010000000081111561211857600080fd5b82018360208201111561212a57600080fd5b8035906020019184600183028401116401000000008311171561214c57600080fd5b91908080601f016020809104026020016040519081016040528093929190818152602001838380828437600081840152601f19601f820116905080830192505050505050509192919290803590602001906401000000008111156121af57600080fd5b8201836020820111156121c157600080fd5b803590602001918460018302840111640100000000831117156121e357600080fd5b91908080601f016020809104026020016040519081016040528093929190818152602001838380828437600081840152601f19601f820116905080830192505050505050509192919290803515159060200190929190505050615827565b005b6060600560003373ffffffffffffffffffffffffffffffffffffffff1673ffffffffffffffffffffffffffffffffffffffff16815260200190815260200160002060009054906101000a900460ff16612304576040517f08c379a000000000000000000000000000000000000000000000000000000000815260040180806020018281038252601c8152602001807f54686520757365722073686f756c64206265207265637275697465720000000081525060200191505060405180910390fd5b600160009054906101000a900473ffffffffffffffffffffffffffffffffffffffff1673ffffffffffffffffffffffffffffffffffffffff166304f801a0836040518263ffffffff1660e01b81526004018082815260200191505060006040518083038186803b15801561237757600080fd5b505afa15801561238b573d6000803e3d6000fd5b505050506040513d6000823e3d601f19601f8201168201806040525060208110156123b557600080fd5b8101908080516401000000008111156123cd57600080fd5b828101905060208101848111156123e357600080fd5b815185602082028301116401000000008211171561240057600080fd5b50509291905050509050919050565b6004602052806000526040600020600091509050806000018054600181600116156101000203166002900480601f0160208091040260200160405190810160405280929190818152602001828054600181600116156101000203166002900480156124bb5780601f10612490576101008083540402835291602001916124bb565b820191906000526020600020905b81548152906001019060200180831161249e57829003601f168201915b505050505090806001018054600181600116156101000203166002900480601f0160208091040260200160405190810160405280929190818152602001828054600181600116156101000203166002900480156125595780601f1061252e57610100808354040283529160200191612559565b820191906000526020600020905b81548152906001019060200180831161253c57829003601f168201915b5050505050908060020160009054906101000a900473ffffffffffffffffffffffffffffffffffffffff1690806003018054600181600116156101000203166002900480601f01602080910402602001604051908101604052809291908181526020018280546001816001161561010002031660029004801561261d5780601f106125f25761010080835404028352916020019161261d565b820191906000526020600020905b81548152906001019060200180831161260057829003601f168201915b5050505050908060040154908060050154908060060154905087565b600260205281600052604060002060205280600052604060002060009150915050806000018054600181600116156101000203166002900480601f0160208091040260200160405190810160405280929190818152602001828054600181600116156101000203166002900480156126f25780601f106126c7576101008083540402835291602001916126f2565b820191906000526020600020905b8154815290600101906020018083116126d557829003601f168201915b505050505090806001018054600181600116156101000203166002900480601f0160208091040260200160405190810160405280929190818152602001828054600181600116156101000203166002900480156127905780601f1061276557610100808354040283529160200191612790565b820191906000526020600020905b81548152906001019060200180831161277357829003601f168201915b505050505090806002015490806003018054600181600116156101000203166002900480601f0160208091040260200160405190810160405280929190818152602001828054600181600116156101000203166002900480156128345780601f1061280957610100808354040283529160200191612834565b820191906000526020600020905b81548152906001019060200180831161281757829003601f168201915b505050505090806004018054600181600116156101000203166002900480601f0160208091040260200160405190810160405280929190818152602001828054600181600116156101000203166002900480156128d25780601f106128a7576101008083540402835291602001916128d2565b820191906000526020600020905b8154815290600101906020018083116128b557829003601f168201915b505050505090806005018054600181600116156101000203166002900480601f0160208091040260200160405190810160405280929190818152602001828054600181600116156101000203166002900480156129705780601f1061294557610100808354040283529160200191612970565b820191906000526020600020905b81548152906001019060200180831161295357829003601f168201915b5050505050908060060160009054906101000a900460ff16905087565b600360205281600052604060002060205280600052604060002060009150915050806000018054600181600116156101000203166002900480601f016020809104026020016040519081016040528092919081815260200182805460018160011615610100020316600290048015612a465780601f10612a1b57610100808354040283529160200191612a46565b820191906000526020600020905b815481529060010190602001808311612a2957829003601f168201915b505050505090806001018054600181600116156101000203166002900480601f016020809104026020016040519081016040528092919081815260200182805460018160011615610100020316600290048015612ae45780601f10612ab957610100808354040283529160200191612ae4565b820191906000526020600020905b815481529060010190602001808311612ac757829003601f168201915b505050505090806002018054600181600116156101000203166002900480601f016020809104026020016040519081016040528092919081815260200182805460018160011615610100020316600290048015612b825780601f10612b5757610100808354040283529160200191612b82565b820191906000526020600020905b815481529060010190602001808311612b6557829003601f168201915b505050505090806003018054600181600116156101000203166002900480601f016020809104026020016040519081016040528092919081815260200182805460018160011615610100020316600290048015612c205780601f10612bf557610100808354040283529160200191612c20565b820191906000526020600020905b815481529060010190602001808311612c0357829003601f168201915b505050505090806004018054600181600116156101000203166002900480601f016020809104026020016040519081016040528092919081815260200182805460018160011615610100020316600290048015612cbe5780601f10612c9357610100808354040283529160200191612cbe565b820191906000526020600020905b815481529060010190602001808311612ca157829003601f168201915b5050505050905085565b612cd0615d36565b600460003373ffffffffffffffffffffffffffffffffffffffff1673ffffffffffffffffffffffffffffffffffffffff1681526020019081526020016000206040518060e0016040529081600082018054600181600116156101000203166002900480601f016020809104026020016040519081016040528092919081815260200182805460018160011615610100020316600290048015612db35780601f10612d8857610100808354040283529160200191612db3565b820191906000526020600020905b815481529060010190602001808311612d9657829003601f168201915b50505050508152602001600182018054600181600116156101000203166002900480601f016020809104026020016040519081016040528092919081815260200182805460018160011615610100020316600290048015612e555780601f10612e2a57610100808354040283529160200191612e55565b820191906000526020600020905b815481529060010190602001808311612e3857829003601f168201915b505050505081526020016002820160009054906101000a900473ffffffffffffffffffffffffffffffffffffffff1673ffffffffffffffffffffffffffffffffffffffff1673ffffffffffffffffffffffffffffffffffffffff168152602001600382018054600181600116156101000203166002900480601f016020809104026020016040519081016040528092919081815260200182805460018160011615610100020316600290048015612f4d5780601f10612f2257610100808354040283529160200191612f4d565b820191906000526020600020905b815481529060010190602001808311612f3057829003601f168201915b505050505081526020016004820154815260200160058201548152602001600682015481525050905082816000018190525081816020018190525080600460003373ffffffffffffffffffffffffffffffffffffffff1673ffffffffffffffffffffffffffffffffffffffff1681526020019081526020016000206000820151816000019080519060200190612fe4929190615d89565b506020820151816001019080519060200190613001929190615d89565b5060408201518160020160006101000a81548173ffffffffffffffffffffffffffffffffffffffff021916908373ffffffffffffffffffffffffffffffffffffffff1602179055506060820151816003019080519060200190613065929190615d89565b506080820151816004015560a0820151816005015560c082015181600601559050507f445faa208ebede289415bd6eb6370c77d9d755db5b8a22acf6336f4b7efe279f8383336040518080602001806020018473ffffffffffffffffffffffffffffffffffffffff1673ffffffffffffffffffffffffffffffffffffffff168152602001838103835286818151815260200191508051906020019080838360005b83811015613121578082015181840152602081019050613106565b50505050905090810190601f16801561314e5780820380516001836020036101000a031916815260200191505b50838103825285818151815260200191508051906020019080838360005b8381101561318757808201518184015260208101905061316c565b50505050905090810190601f1680156131b45780820380516001836020036101000a031916815260200191505b509550505050505060405180910390a1505050565b600560003373ffffffffffffffffffffffffffffffffffffffff1673ffffffffffffffffffffffffffffffffffffffff16815260200190815260200160002060009054906101000a900460ff161561326c576040517f08c379a0000000000000000000000000000000000000000000000000000000008152600401808060200182810382526023815260200180615f0d6023913960400191505060405180910390fd5b6040518060a001604052808481526020018381526020013373ffffffffffffffffffffffffffffffffffffffff1681526020018281526020016000815250600760003373ffffffffffffffffffffffffffffffffffffffff1673ffffffffffffffffffffffffffffffffffffffff1681526020019081526020016000206000820151816000019080519060200190613305929190615d89565b506020820151816001019080519060200190613322929190615d89565b5060408201518160020160006101000a81548173ffffffffffffffffffffffffffffffffffffffff021916908373ffffffffffffffffffffffffffffffffffffffff1602179055506060820151816003019080519060200190613386929190615d89565b50608082015181600401559050506001600560003373ffffffffffffffffffffffffffffffffffffffff1673ffffffffffffffffffffffffffffffffffffffff16815260200190815260200160002060006101000a81548160ff0219169083151502179055507f671e681bfe3e52b88cb6cae2d7ae9077d58f1ca76a1bc7b6d80686c55c4560d9838333846040518080602001806020018573ffffffffffffffffffffffffffffffffffffffff1673ffffffffffffffffffffffffffffffffffffffff16815260200180602001848103845288818151815260200191508051906020019080838360005b8381101561348b578082015181840152602081019050613470565b50505050905090810190601f1680156134b85780820380516001836020036101000a031916815260200191505b50848103835287818151815260200191508051906020019080838360005b838110156134f15780820151818401526020810190506134d6565b50505050905090810190601f16801561351e5780820380516001836020036101000a031916815260200191505b50848103825285818151815260200191508051906020019080838360005b8381101561355757808201518184015260208101905061353c565b50505050905090810190601f1680156135845780820380516001836020036101000a031916815260200191505b5097505050505050505060405180910390a1505050565b6007602052806000526040600020600091509050806000018054600181600116156101000203166002900480601f0160208091040260200160405190810160405280929190818152602001828054600181600116156101000203166002900480156136475780601f1061361c57610100808354040283529160200191613647565b820191906000526020600020905b81548152906001019060200180831161362a57829003601f168201915b505050505090806001018054600181600116156101000203166002900480601f0160208091040260200160405190810160405280929190818152602001828054600181600116156101000203166002900480156136e55780601f106136ba576101008083540402835291602001916136e5565b820191906000526020600020905b8154815290600101906020018083116136c857829003601f168201915b5050505050908060020160009054906101000a900473ffffffffffffffffffffffffffffffffffffffff1690806003018054600181600116156101000203166002900480601f0160208091040260200160405190810160405280929190818152602001828054600181600116156101000203166002900480156137a95780601f1061377e576101008083540402835291602001916137a9565b820191906000526020600020905b81548152906001019060200180831161378c57829003601f168201915b5050505050908060040154905085565b600660003373ffffffffffffffffffffffffffffffffffffffff1673ffffffffffffffffffffffffffffffffffffffff16815260200190815260200160002060009054906101000a900460ff16613878576040517f08c379a000000000000000000000000000000000000000000000000000000000815260040180806020018281038252601b8152602001807f54686520757365722073686f756c6420626520656d706c6f796565000000000081525060200191505060405180910390fd5b600460003373ffffffffffffffffffffffffffffffffffffffff1673ffffffffffffffffffffffffffffffffffffffff168152602001908152602001600020600501600081548092919060010191905055506138d2615e09565b6040518060a0016040528087815260200186815260200185815260200184815260200183815250905080600360003373ffffffffffffffffffffffffffffffffffffffff1673ffffffffffffffffffffffffffffffffffffffff1681526020019081526020016000206000600460003373ffffffffffffffffffffffffffffffffffffffff1673ffffffffffffffffffffffffffffffffffffffff16815260200190815260200160002060050154815260200190815260200160002060008201518160000190805190602001906139aa929190615d89565b5060208201518160010190805190602001906139c7929190615d89565b5060408201518160020190805190602001906139e4929190615d89565b506060820151816003019080519060200190613a01929190615d89565b506080820151816004019080519060200190613a1e929190615d89565b509050507f6e9efbf9fa9ec3ad4d767f0f748a3124b58f487a35ebe0f51dd093068b43187a868686868660405180806020018060200180602001806020018060200186810386528b818151815260200191508051906020019080838360005b83811015613a98578082015181840152602081019050613a7d565b50505050905090810190601f168015613ac55780820380516001836020036101000a031916815260200191505b5086810385528a818151815260200191508051906020019080838360005b83811015613afe578082015181840152602081019050613ae3565b50505050905090810190601f168015613b2b5780820380516001836020036101000a031916815260200191505b50868103845289818151815260200191508051906020019080838360005b83811015613b64578082015181840152602081019050613b49565b50505050905090810190601f168015613b915780820380516001836020036101000a031916815260200191505b50868103835288818151815260200191508051906020019080838360005b83811015613bca578082015181840152602081019050613baf565b50505050905090810190601f168015613bf75780820380516001836020036101000a031916815260200191505b50868103825287818151815260200191508051906020019080838360005b83811015613c30578082015181840152602081019050613c15565b50505050905090810190601f168015613c5d5780820380516001836020036101000a031916815260200191505b509a505050505050505050505060405180910390a1505050505050565b60086020528160005260406000208181548110613c9357fe5b90600052602060002001600091509150505481565b600560003373ffffffffffffffffffffffffffffffffffffffff1673ffffffffffffffffffffffffffffffffffffffff16815260200190815260200160002060009054906101000a900460ff16613d67576040517f08c379a000000000000000000000000000000000000000000000000000000000815260040180806020018281038252601c8152602001807f54686520757365722073686f756c64206265207265637275697465720000000081525060200191505060405180910390fd5b600160009054906101000a900473ffffffffffffffffffffffffffffffffffffffff1673ffffffffffffffffffffffffffffffffffffffff16636358bb8c826040518263ffffffff1660e01b815260040180828152602001915050600060405180830381600087803b158015613ddc57600080fd5b505af1158015613df0573d6000803e3d6000fd5b505050507f89f27608841804f17b8e014428ff9f1b09d1e415313170c8de783b0de71316ba8133604051808381526020018273ffffffffffffffffffffffffffffffffffffffff1673ffffffffffffffffffffffffffffffffffffffff1681526020019250505060405180910390a150565b600660003373ffffffffffffffffffffffffffffffffffffffff1673ffffffffffffffffffffffffffffffffffffffff16815260200190815260200160002060009054906101000a900460ff16613f21576040517f08c379a000000000000000000000000000000000000000000000000000000000815260040180806020018281038252601b8152602001807f54686520757365722073686f756c6420626520656d706c6f796565000000000081525060200191505060405180910390fd5b613f29615e38565b6040518060e00160405280898152602001888152602001878152602001868152602001858152602001848152602001831515815250905080600260003373ffffffffffffffffffffffffffffffffffffffff1673ffffffffffffffffffffffffffffffffffffffff16815260200190815260200160002060008b81526020019081526020016000206000820151816000019080519060200190613fcd929190615d89565b506020820151816001019080519060200190613fea929190615d89565b50604082015181600201556060820151816003019080519060200190614011929190615d89565b50608082015181600401908051906020019061402e929190615d89565b5060a082015181600501908051906020019061404b929190615d89565b5060c08201518160060160006101000a81548160ff0219169083151502179055509050507f13abe5a4702b4131dd5c162edfbd370859e8d9016e9b319b5dcd10cf179756d189898989898989896040518089815260200180602001806020018881526020018060200180602001806020018715151515815260200186810386528d818151815260200191508051906020019080838360005b838110156140fe5780820151818401526020810190506140e3565b50505050905090810190601f16801561412b5780820380516001836020036101000a031916815260200191505b5086810385528c818151815260200191508051906020019080838360005b83811015614164578082015181840152602081019050614149565b50505050905090810190601f1680156141915780820380516001836020036101000a031916815260200191505b5086810384528a818151815260200191508051906020019080838360005b838110156141ca5780820151818401526020810190506141af565b50505050905090810190601f1680156141f75780820380516001836020036101000a031916815260200191505b50868103835289818151815260200191508051906020019080838360005b83811015614230578082015181840152602081019050614215565b50505050905090810190601f16801561425d5780820380516001836020036101000a031916815260200191505b50868103825288818151815260200191508051906020019080838360005b8381101561429657808201518184015260208101905061427b565b50505050905090810190601f1680156142c35780820380516001836020036101000a031916815260200191505b509d505050505050505050505050505060405180910390a1505050505050505050565b600660003373ffffffffffffffffffffffffffffffffffffffff1673ffffffffffffffffffffffffffffffffffffffff16815260200190815260200160002060009054906101000a900460ff166143a5576040517f08c379a000000000000000000000000000000000000000000000000000000000815260040180806020018281038252601b8152602001807f54686520757365722073686f756c6420626520656d706c6f796565000000000081525060200191505060405180910390fd5b6143ad615e09565b6040518060a0016040528087815260200186815260200185815260200184815260200183815250905080600360003373ffffffffffffffffffffffffffffffffffffffff1673ffffffffffffffffffffffffffffffffffffffff16815260200190815260200160002060008981526020019081526020016000206000820151816000019080519060200190614443929190615d89565b506020820151816001019080519060200190614460929190615d89565b50604082015181600201908051906020019061447d929190615d89565b50606082015181600301908051906020019061449a929190615d89565b5060808201518160040190805190602001906144b7929190615d89565b509050507f74954df97f9e2fda8665e3b0c72b58a911588205516987856481b4aaf89bd6b287878787878760405180878152602001806020018060200180602001806020018060200186810386528b818151815260200191508051906020019080838360005b8381101561453857808201518184015260208101905061451d565b50505050905090810190601f1680156145655780820380516001836020036101000a031916815260200191505b5086810385528a818151815260200191508051906020019080838360005b8381101561459e578082015181840152602081019050614583565b50505050905090810190601f1680156145cb5780820380516001836020036101000a031916815260200191505b50868103845289818151815260200191508051906020019080838360005b838110156146045780820151818401526020810190506145e9565b50505050905090810190601f1680156146315780820380516001836020036101000a031916815260200191505b50868103835288818151815260200191508051906020019080838360005b8381101561466a57808201518184015260208101905061464f565b50505050905090810190601f1680156146975780820380516001836020036101000a031916815260200191505b50868103825287818151815260200191508051906020019080838360005b838110156146d05780820151818401526020810190506146b5565b50505050905090810190601f1680156146fd5780820380516001836020036101000a031916815260200191505b509b50505050505050505050505060405180910390a150505050505050565b60056020528060005260406000206000915054906101000a900460ff1681565b600660003373ffffffffffffffffffffffffffffffffffffffff1673ffffffffffffffffffffffffffffffffffffffff16815260200190815260200160002060009054906101000a900460ff16156147df576040517f08c379a0000000000000000000000000000000000000000000000000000000008152600401808060200182810382526023815260200180615eea6023913960400191505060405180910390fd5b6040518060e001604052808381526020018281526020013373ffffffffffffffffffffffffffffffffffffffff16815260200160405180602001604052806000815250815260200160008152602001600081526020016000815250600460003373ffffffffffffffffffffffffffffffffffffffff1673ffffffffffffffffffffffffffffffffffffffff1681526020019081526020016000206000820151816000019080519060200190614895929190615d89565b5060208201518160010190805190602001906148b2929190615d89565b5060408201518160020160006101000a81548173ffffffffffffffffffffffffffffffffffffffff021916908373ffffffffffffffffffffffffffffffffffffffff1602179055506060820151816003019080519060200190614916929190615d89565b506080820151816004015560a0820151816005015560c082015181600601559050506001600660003373ffffffffffffffffffffffffffffffffffffffff1673ffffffffffffffffffffffffffffffffffffffff16815260200190815260200160002060006101000a81548160ff0219169083151502179055507fc49632f51376c60b6d4650b56b484dfbe0c45b5659b3af0e698bde66cb1994ec8282336040518080602001806020018473ffffffffffffffffffffffffffffffffffffffff1673ffffffffffffffffffffffffffffffffffffffff168152602001838103835286818151815260200191508051906020019080838360005b83811015614a2a578082015181840152602081019050614a0f565b50505050905090810190601f168015614a575780820380516001836020036101000a031916815260200191505b50838103825285818151815260200191508051906020019080838360005b83811015614a90578082015181840152602081019050614a75565b50505050905090810190601f168015614abd5780820380516001836020036101000a031916815260200191505b509550505050505060405180910390a15050565b600660003373ffffffffffffffffffffffffffffffffffffffff1673ffffffffffffffffffffffffffffffffffffffff16815260200190815260200160002060009054906101000a900460ff16614b90576040517f08c379a000000000000000000000000000000000000000000000000000000000815260040180806020018281038252601b8152602001807f54686520757365722073686f756c6420626520656d706c6f796565000000000081525060200191505060405180910390fd5b600160009054906101000a900473ffffffffffffffffffffffffffffffffffffffff1673ffffffffffffffffffffffffffffffffffffffff16631a5d476d82336040518363ffffffff1660e01b8152600401808381526020018273ffffffffffffffffffffffffffffffffffffffff1673ffffffffffffffffffffffffffffffffffffffff16815260200192505050600060405180830381600087803b158015614c3957600080fd5b505af1158015614c4d573d6000803e3d6000fd5b505050506000600460003373ffffffffffffffffffffffffffffffffffffffff1673ffffffffffffffffffffffffffffffffffffffff168152602001908152602001600020600601549050808060010191505080600460003373ffffffffffffffffffffffffffffffffffffffff1673ffffffffffffffffffffffffffffffffffffffff168152602001908152602001600020600601819055506060600960003373ffffffffffffffffffffffffffffffffffffffff1673ffffffffffffffffffffffffffffffffffffffff168152602001908152602001600020805480602002602001604051908101604052809291908181526020018280548015614d7257602002820191906000526020600020905b815481526020019060010190808311614d5e575b50505050509050606082604051908082528060200260200182016040528015614daa5781602001602082028038833980820191505090505b50905060008090505b60018403811015614df757828181518110614dca57fe5b6020026020010151828281518110614dde57fe5b6020026020010181815250508080600101915050614db3565b5083816001850381518110614e0857fe5b60200260200101818152505080600960003373ffffffffffffffffffffffffffffffffffffffff1673ffffffffffffffffffffffffffffffffffffffff1681526020019081526020016000209080519060200190614e67929190615e77565b507fffa837d183240a5f25cbd643a8eade702c0c9c3e186c59c7d929e4f1a3438d868433604051808381526020018273ffffffffffffffffffffffffffffffffffffffff1673ffffffffffffffffffffffffffffffffffffffff1681526020019250505060405180910390a150505050565b600560003373ffffffffffffffffffffffffffffffffffffffff1673ffffffffffffffffffffffffffffffffffffffff16815260200190815260200160002060009054906101000a900460ff16614f98576040517f08c379a000000000000000000000000000000000000000000000000000000000815260040180806020018281038252601c8152602001807f54686520757365722073686f756c64206265207265637275697465720000000081525060200191505060405180910390fd5b6000600160009054906101000a900473ffffffffffffffffffffffffffffffffffffffff1673ffffffffffffffffffffffffffffffffffffffff16638e7ab7298888888888886040518763ffffffff1660e01b815260040180806020018060200180602001806020018060200187815260200186810386528c818151815260200191508051906020019080838360005b83811015615043578082015181840152602081019050615028565b50505050905090810190601f1680156150705780820380516001836020036101000a031916815260200191505b5086810385528b818151815260200191508051906020019080838360005b838110156150a957808201518184015260208101905061508e565b50505050905090810190601f1680156150d65780820380516001836020036101000a031916815260200191505b5086810384528a818151815260200191508051906020019080838360005b8381101561510f5780820151818401526020810190506150f4565b50505050905090810190601f16801561513c5780820380516001836020036101000a031916815260200191505b50868103835289818151815260200191508051906020019080838360005b8381101561517557808201518184015260208101905061515a565b50505050905090810190601f1680156151a25780820380516001836020036101000a031916815260200191505b50868103825288818151815260200191508051906020019080838360005b838110156151db5780820151818401526020810190506151c0565b50505050905090810190601f1680156152085780820380516001836020036101000a031916815260200191505b509b505050505050505050505050602060405180830381600087803b15801561523057600080fd5b505af1158015615244573d6000803e3d6000fd5b505050506040513d602081101561525a57600080fd5b810190808051906020019092919050505090506000600760003373ffffffffffffffffffffffffffffffffffffffff1673ffffffffffffffffffffffffffffffffffffffff168152602001908152602001600020600401549050808060010191505080600760003373ffffffffffffffffffffffffffffffffffffffff1673ffffffffffffffffffffffffffffffffffffffff168152602001908152602001600020600401819055506060600860003373ffffffffffffffffffffffffffffffffffffffff1673ffffffffffffffffffffffffffffffffffffffff16815260200190815260200160002080548060200260200160405190810160405280929190818152602001828054801561538e57602002820191906000526020600020905b81548152602001906001019080831161537a575b505050505090506060826040519080825280602002602001820160405280156153c65781602001602082028038833980820191505090505b50905060008090505b60018403811015615413578281815181106153e657fe5b60200260200101518282815181106153fa57fe5b60200260200101818152505080806001019150506153cf565b508381600185038151811061542457fe5b60200260200101818152505080600860003373ffffffffffffffffffffffffffffffffffffffff1673ffffffffffffffffffffffffffffffffffffffff1681526020019081526020016000209080519060200190615483929190615e77565b507f264e51fbf03122fb6794e8e7856f418b21072f0741270150ec11764c7378b45f338b8b8b8a8a604051808773ffffffffffffffffffffffffffffffffffffffff1673ffffffffffffffffffffffffffffffffffffffff1681526020018060200180602001806020018060200186815260200185810385528a818151815260200191508051906020019080838360005b8381101561552f578082015181840152602081019050615514565b50505050905090810190601f16801561555c5780820380516001836020036101000a031916815260200191505b50858103845289818151815260200191508051906020019080838360005b8381101561559557808201518184015260208101905061557a565b50505050905090810190601f1680156155c25780820380516001836020036101000a031916815260200191505b50858103835288818151815260200191508051906020019080838360005b838110156155fb5780820151818401526020810190506155e0565b50505050905090810190601f1680156156285780820380516001836020036101000a031916815260200191505b50858103825287818151815260200191508051906020019080838360005b83811015615661578082015181840152602081019050615646565b50505050905090810190601f16801561568e5780820380516001836020036101000a031916815260200191505b509a505050505050505050505060405180910390a150505050505050505050565b6060600960003373ffffffffffffffffffffffffffffffffffffffff1673ffffffffffffffffffffffffffffffffffffffff16815260200190815260200160002080548060200260200160405190810160405280929190818152602001828054801561573a57602002820191906000526020600020905b815481526020019060010190808311615726575b5050505050905090565b6009602052816000526040600020818154811061575d57fe5b90600052602060002001600091509150505481565b60066020528060005260406000206000915054906101000a900460ff1681565b6060600860003373ffffffffffffffffffffffffffffffffffffffff1673ffffffffffffffffffffffffffffffffffffffff16815260200190815260200160002080548060200260200160405190810160405280929190818152602001828054801561581d57602002820191906000526020600020905b815481526020019060010190808311615809575b5050505050905090565b600660003373ffffffffffffffffffffffffffffffffffffffff1673ffffffffffffffffffffffffffffffffffffffff16815260200190815260200160002060009054906101000a900460ff166158e6576040517f08c379a000000000000000000000000000000000000000000000000000000000815260040180806020018281038252601b8152602001807f54686520757365722073686f756c6420626520656d706c6f796565000000000081525060200191505060405180910390fd5b600460003373ffffffffffffffffffffffffffffffffffffffff1673ffffffffffffffffffffffffffffffffffffffff16815260200190815260200160002060040160008154809291906001019190505550615940615e38565b6040518060e00160405280898152602001888152602001878152602001868152602001858152602001848152602001831515815250905080600260003373ffffffffffffffffffffffffffffffffffffffff1673ffffffffffffffffffffffffffffffffffffffff1681526020019081526020016000206000600460003373ffffffffffffffffffffffffffffffffffffffff1673ffffffffffffffffffffffffffffffffffffffff1681526020019081526020016000206004015481526020019081526020016000206000820151816000019080519060200190615a26929190615d89565b506020820151816001019080519060200190615a43929190615d89565b50604082015181600201556060820151816003019080519060200190615a6a929190615d89565b506080820151816004019080519060200190615a87929190615d89565b5060a0820151816005019080519060200190615aa4929190615d89565b5060c08201518160060160006101000a81548160ff0219169083151502179055509050507ff39df3f7f1653b87d3a6922920e12932ed3fae459c432a0e067cec8d07a7a7b6888888888888886040518080602001806020018881526020018060200180602001806020018715151515815260200186810386528d818151815260200191508051906020019080838360005b83811015615b50578082015181840152602081019050615b35565b50505050905090810190601f168015615b7d5780820380516001836020036101000a031916815260200191505b5086810385528c818151815260200191508051906020019080838360005b83811015615bb6578082015181840152602081019050615b9b565b50505050905090810190601f168015615be35780820380516001836020036101000a031916815260200191505b5086810384528a818151815260200191508051906020019080838360005b83811015615c1c578082015181840152602081019050615c01565b50505050905090810190601f168015615c495780820380516001836020036101000a031916815260200191505b50868103835289818151815260200191508051906020019080838360005b83811015615c82578082015181840152602081019050615c67565b50505050905090810190601f168015615caf5780820380516001836020036101000a031916815260200191505b50868103825288818151815260200191508051906020019080838360005b83811015615ce8578082015181840152602081019050615ccd565b50505050905090810190601f168015615d155780820380516001836020036101000a031916815260200191505b509c5050505050505050505050505060405180910390a15050505050505050565b6040518060e001604052806060815260200160608152602001600073ffffffffffffffffffffffffffffffffffffffff168152602001606081526020016000815260200160008152602001600081525090565b828054600181600116156101000203166002900490600052602060002090601f016020900481019282601f10615dca57805160ff1916838001178555615df8565b82800160010185558215615df8579182015b82811115615df7578251825591602001919060010190615ddc565b5b509050615e059190615ec4565b5090565b6040518060a0016040528060608152602001606081526020016060815260200160608152602001606081525090565b6040518060e001604052806060815260200160608152602001600081526020016060815260200160608152602001606081526020016000151581525090565b828054828255906000526020600020908101928215615eb3579160200282015b82811115615eb2578251825591602001919060010190615e97565b5b509050615ec09190615ec4565b5090565b615ee691905b80821115615ee2576000816000905550600101615eca565b5090565b9056fe5573657220616c7265616479207265676973746572656420617320656d706c6f7965655573657220616c7265616479207265676973746572656420617320656d706c6f796572a165627a7a723058207ba216a7cd62f2b9fd44ef835e2499bde3438c0c0dd2d71ec78f6443cccde81e0029",
  "source": "import \"./JobLib.sol\";\npragma solidity ^0.5.0;\n\n\n\ncontract JobPortal \n{\n    address owner;\n    JobLib jobLib;\n    \n    // add contact no\n    struct Employee{\n        string name;\n        string email;\n        address employeeAddress;\n        string skillset;\n        uint workExperienceCount;\n        uint academicCount;\n        uint jobsAppliedCount;\n    }\n    \n    mapping(address => mapping(uint => WorkExperience)) public workExperienceDetails;\n    mapping(address => mapping(uint => Academics)) public academicDetails;\n    \n    //add Location\n    struct WorkExperience {\n        string companyName;\n       \n        string role;\n        uint salary;\n        string fromDate;\n        string ToDate;\n        string duration;\n        //string location;\n        bool isCurrentEmployer;\n    }\n    //add Location\n    struct Academics {\n        string institutionName;\n       \n        string course;\n        string fromDate;\n        string toDate;\n        //string location;\n        string duration;\n    }\n    \n    mapping(address => Employee) public registeredEmployees;\n  \n    \n    \n     struct Recruiter{\n        string name;\n        string companyName;\n        address recruiterAddress;\n        string email;\n        uint jobCount;\n       \n    }\n    \n    modifier onlyRecruiter {\n        require(isRecruiter[msg.sender],\"The user should be recruiter\");\n        _;\n    }\n    \n    modifier notRecruiter{\n        require(isEmployee[msg.sender],\"The user should be employee\");\n        _;\n    }\n    \n    mapping(address => bool) public isRecruiter;\n    mapping(address => bool) public isEmployee;\n    mapping(address => Recruiter) public  registeredRecruiters;\n     mapping(address => uint[]) public recruiterPostedJobs;\n    mapping(address => uint[]) public employeeAppliedJobs;\n\n    constructor(JobLib _jobLib) public{\n        owner=msg.sender;\n        jobLib=_jobLib;\n    }\n    \n    // Events for Employee\n    event EmployeeRegistered(string  _name, string  _email,address _employeeAddress);\n    event UpdatedBasicProfile(string _name, string _email, address _employeeAddress);\n    event AcademicsAdded(string  _institutionName, string  _course, string  _fromDate, string  _toDate, string  _duration);\n    event AcademicsUpdated(uint _id,string  _institutionName, string  _course, string  _fromDate, string  _toDate, string  _duration);\n    event ExperienceAdded(string  _companyName,string  _role,uint _salary, string  _fromDate, string  _toDate, string  _duration, bool _isCurrentEmployer);\n    event ExperienceUpdated(uint _id, string  _companyName,string  _role,uint _salary, string  _fromDate, string  _toDate, string  _duration, bool _isCurrentEmployer);\n    event JobApplied(uint _jobId, address _employee);\n    \n    // Events for Employer\n    \n    event RecruiterRegistered(string _name, string _companyName, address _recruiterAddress, string _email);\n    event JobPosted(address _recruiterAddress,string _position, string _description, string _company, string _skillsRequired, uint _salary);\n    event JobDeleted(uint _jobId, address _recruiter);\n    \n    \n    //function registerUser(string memory _name,string memory _email,bool _isRecruiter) public  {\n       // if(_isRecruiter){\n        //    require(!isRecruiter[msg.sender],\"User already registered as employer\");\n        //    registeredRecruiters[msg.sender]=Recruiter(_name,\"\",msg.sender,_email,0);\n        //    isRecruiter[msg.sender]=true;\n        \n        //   emit RecruiterRegistered(_name,msg.sender,_email);\n       // }\n       // else{\n       // require(!isEmployee[msg.sender],\"User already registered as employee\");\n       // registeredEmployees[msg.sender] =  Employee(_name,_email,msg.sender,\"\",0,0,0);\n       // //isRecruiter[msg.sender]=false;\n       // isEmployee[msg.sender]=true;\n        \n       // emit EmployeeRegistered(_name,_email,msg.sender);\n       // }\n        \n   // }\n    \n      function registerEmployee(string memory _name,string memory _email) public  {\n        require(!isEmployee[msg.sender],\"User already registered as employee\");\n        registeredEmployees[msg.sender] =  Employee(_name,_email,msg.sender,\"\",0,0,0);\n        \n        isEmployee[msg.sender]=true;\n        \n        emit EmployeeRegistered(_name,_email,msg.sender);\n        \n    }\n    \n    function updatebasicProfile(string memory _name, string memory _email) public {\n        Employee memory employee= registeredEmployees[msg.sender];\n        employee.name=_name;\n        employee.email=_email;\n        registeredEmployees[msg.sender]=employee;\n        \n        emit UpdatedBasicProfile(_name,_email,msg.sender);\n    }\n    \n     function AddAcademics(string memory _institutionName, string memory _course, string memory _fromDate, string memory _toDate, string memory _duration) public notRecruiter{\n        \n        registeredEmployees[msg.sender].academicCount++;\n        \n        Academics memory academics = Academics(_institutionName, _course,_fromDate,_toDate,_duration);\n        academicDetails[msg.sender][registeredEmployees[msg.sender].academicCount]=academics;\n        \n       \n        \n        emit AcademicsAdded(_institutionName,_course,_fromDate,_toDate,_duration);\n        \n    }\n    \n    function UpdateAcademics(uint _id, string memory _institutionName, string memory _course, string memory _fromDate, string memory _toDate, string memory _duration) public notRecruiter {\n        Academics memory academics = Academics(_institutionName,_course,_fromDate,_toDate, _duration);\n        academicDetails[msg.sender][_id]=academics;\n        \n        emit AcademicsUpdated(_id, _institutionName,_course,_fromDate,_toDate,_duration);\n    }\n    \n    \n   \n    \n   \n     function AddExperience(string memory _companyName,  string memory _role,uint _salary, string memory _fromDate, string memory _toDate,  string memory _duration, bool _isCurrentEmployer) public notRecruiter{\n        registeredEmployees[msg.sender].workExperienceCount++;\n        \n        WorkExperience memory workExperience = WorkExperience(_companyName,_role,_salary,_fromDate,_toDate , _duration, _isCurrentEmployer);\n        \n        workExperienceDetails[msg.sender][registeredEmployees[msg.sender].workExperienceCount]=workExperience;\n        emit ExperienceAdded(_companyName,_role,_salary,_fromDate,_toDate,_duration,_isCurrentEmployer);\n        \n    }\n    \n    function UpdateExperience(uint _id,  string memory _companyName,string memory _role,uint _salary, string memory _fromDate, string memory _toDate, string memory _durartion, bool _isCurrentEmployer) public notRecruiter\n    {\n        WorkExperience memory workExperience = WorkExperience(_companyName,_role,_salary,_fromDate,_toDate, _durartion, _isCurrentEmployer);\n        \n         workExperienceDetails[msg.sender][_id]=workExperience;\n        emit ExperienceUpdated(_id,_companyName,_role,_salary,_fromDate,_toDate,_durartion,_isCurrentEmployer);\n    }\n    \n     \n   \n    \n    function registerRecruiter(string memory _name, string memory _companyName,  string memory _email) payable public {\n        require(!isRecruiter[msg.sender],\"User already registered as employer\");\n        registeredRecruiters[msg.sender]=Recruiter(_name,_companyName,msg.sender,_email,0);\n        isRecruiter[msg.sender]=true;\n        \n        emit RecruiterRegistered(_name,_companyName,msg.sender,_email);\n    }\n    \n    function PostJob(string memory _position, string memory _description, string memory _company, string memory _location, string memory _skillsRequired, uint _salary) public onlyRecruiter{\n       uint  jobId=jobLib.createJob(_position,_description,_company,_location, _skillsRequired,_salary);\n       uint jobCount =registeredRecruiters[msg.sender].jobCount;\n       jobCount++;\n       registeredRecruiters[msg.sender].jobCount=jobCount;\n      \n       uint[] memory postedJobs = recruiterPostedJobs[msg.sender];\n       uint[] memory tempJobs= new uint[](jobCount);\n       \n       for(uint i=0;i<jobCount-1;i++)\n       {\n           tempJobs[i]=postedJobs[i];\n       }\n       tempJobs[jobCount-1]=jobId;\n      \n       recruiterPostedJobs[msg.sender]=tempJobs;\n        \n        emit JobPosted(msg.sender,_position,_description,_company,_skillsRequired,_salary);\n    }\n    \n \n     function ApplyJob(uint _id) public notRecruiter\n    {\n        \n        jobLib.addJobApplicant(_id,msg.sender);\n       uint jobCount= registeredEmployees[msg.sender].jobsAppliedCount;\n       jobCount++;\n       registeredEmployees[msg.sender].jobsAppliedCount=jobCount;\n        \n       \n       uint[] memory appliedJobs = employeeAppliedJobs[msg.sender];\n       uint[] memory tempJobs= new uint[](jobCount);\n       \n       for(uint i=0;i<jobCount-1;i++)\n       {\n           tempJobs[i]=appliedJobs[i];\n       }\n       tempJobs[jobCount-1]=_id;\n       \n       employeeAppliedJobs[msg.sender]=tempJobs;\n        emit JobApplied(_id,msg.sender);\n        \n    }\n    \n    function getJobApplicants(uint _id) public view onlyRecruiter returns (address[] memory){\n      \n      return jobLib.getJobApplicants(_id);\n    }\n    \n    function getRecruiterPostedJobs() public view returns (uint[] memory){\n        return recruiterPostedJobs[msg.sender];\n    }\n    \n     function getEmployeeAppliedJobs() public view returns (uint[] memory){\n        return employeeAppliedJobs[msg.sender];\n    }\n    \n    function deleteJob(uint _id) public  onlyRecruiter {\n        jobLib.deleteJob(_id);\n        emit JobDeleted(_id,msg.sender);\n    }\n  \n}",
  "sourcePath": "/home/kbhargav5/Documents/Ethereum_project/DeHire/src/contracts/JobPortal.sol",
  "compiler": {
    "name": "solc",
    "version": "0.5.8+commit.23d335f2.Emscripten.clang"
  },
  "schemaVersion": "3.0.16",
  "updatedAt": "2019-12-05T03:42:01.127Z",
  "devdoc": {
    "methods": {}
  },
  "userdoc": {
    "methods": {}
  }
}